:040000000BEF00F012
:100008001D82FACF0FF0FBCF10F0B2ED0BF0F9EF35
:020018000DF0E9
:0B0020004269656E76656E69646F00D2
:0C0030004469666963756C7461643F008C
:08004000313D666163696C004B
:08005000323D6D6564696F002B
:0A006000333D6469666963696C0052
:10007000547520726573756C7461646F2065733A92
:01008000007F
:100D00000000839E82EC0EF0000E2F6E060E2F6404
:100D100001D026D02F50010D400EF324F66E000EA8
:100D2000F420F76EF86A000EF8222F50010D400EE5
:100D3000F324D96E000EF420DA6E0800F5CFDFFF41
:100D40002F50010D400EF324D96E000EF420DA6E00
:100D5000DF50836ED2EC0FF029EC0FF02F2AD6D79C
:100D6000000E2F6E090E2F6401D00AD0000E3E6EC9
:100D7000D70EE82EFED73E2EFCD700F02F2AF2D752
:100D8000010E836ECBEC0FF087C057F0586AB5ECBC
:100D90000FF0A2EC0DF04BC03AF04CC03BF0000E4F
:100DA0003D6E050E3C6E6AEC0DF03A282C6E000E7E
:100DB000046E54D2010E056E020E056401D0DED021
:100DC000A2EC0DF04BC03AF04CC03BF0000E3D6E73
:100DD000050E3C6E6AEC0DF03A282C6E020E2C606B
:100DE00023D0080E826E0550010D2A0EF324D96E11
:100DF000000EF420DA6E010EDF6E2C50300F836E81
:100E0000D2EC0FF029EC0FF0000E2F6E090E2F64BC
:100E100001D0A2D0000E3E6ED70EE82EFED73E2E99
:100E2000FCD700F02F2AF2D7030E2C6023D0100E2F
:100E3000826E0550010D2A0EF324D96E000EF420A7
:100E4000DA6E020EDF6E2C50300F836ED2EC0FF094
:100E500029EC0FF0000E2F6E090E2F6401D07CD00C
:100E6000000E3E6ED70EE82EFED73E2EFCD700F0C9
:100E70002F2AF2D7040E2C6023D0200E826E05504C
:100E8000010D2A0EF324D96E000EF420DA6E030E43
:100E9000DF6E2C50300F836ED2EC0FF029EC0FF088
:100EA000000E2F6E090E2F6401D056D0000E3E6E3C
:100EB000D70EE82EFED73E2EFCD700F02F2AF2D711
:100EC000050E2C6023D0400E826E0550010D2A0EB7
:100ED000F324D96E000EF420DA6E040EDF6E2C506F
:100EE000300F836ED2EC0FF029EC0FF0000E2F6E56
:100EF000090E2F6401D030D0000E3E6ED70EE82EC2
:100F0000FED73E2EFCD700F02F2AF2D7060E2C601B
:100F100023D0800E826E0550010D2A0EF324D96E67
:100F2000000EF420DA6E050EDF6E2C50300F836E4B
:100F3000D2EC0FF029EC0FF0000E2F6E090E2F648B
:100F400001D00AD0000E3E6ED70EE82EFED73E2E00
:100F5000FCD700F02F2AF2D7000E826E010E836EAE
:100F6000CBEC0FF029EC0FF0000E3E6ED70EE82E02
:100F7000FED73E2EFCD700F0052A1ED7000E4F6E7E
:100F8000010E4F6401D057D180A03ED0ECEC0EF0A2
:100F90000704D8B4ACEC0FF04F50010D2D0EF32424
:100FA000D96E000EF420DA6E010EDF6E4F50010D87
:100FB0002D0EF324D96E000EF420DA6EDF50300FC0
:100FC000836ED2EC0FF029EC0FF01A0E3E6E940EE9
:100FD000E82EFED73E2EFCD700D04F50010D2D0E2F
:100FE000F324D96E000EF420DA6E4F50010D2A0E54
:100FF000F324E16E000EF420E26EDE50E618D8B461
:1010000003D0F6D0062A17D180A23BD0D7EC0EF041
:101010000804D8B4A3EC0FF04F50010D2D0EF324AB
:10102000D96E000EF420DA6E020EDF6E4F50010D05
:101030002D0EF324D96E000EF420DA6EDF50300F3F
:10104000836ED2EC0FF029EC0FF01A0E3E6E940E68
:10105000E82EFED73E2EFCD700D04F50010D2D0EAE
:10106000F324D96E000EF420DA6E4F50010D2A0ED3
:10107000F324E16E000EF420E26EDE50E618D8A4F0
:10108000B7D080A43BD0C2EC0EF00904D8B49AECDF
:101090000FF04F50010D2D0EF324D96E000EF420E9
:1010A000DA6E030EDF6E4F50010D2D0EF324D96E54
:1010B000000EF420DA6EDF50300F836ED2EC0FF0AA
:1010C00029EC0FF01A0E3E6E940EE82EFED73E2E3F
:1010D000FCD700D04F50010D2D0EF324D96E000E19
:1010E000F420DA6E4F50010D2A0EF324E16E000E4B
:1010F000F420E26EDE50E618D8A47AD080A63BD069
:10110000ADEC0EF00A04D8B491EC0FF04F50010D85
:101110002D0EF324D96E000EF420DA6E040EDF6E6D
:101120004F50010D2D0EF324D96E000EF420DA6E0F
:10113000DF50300F836ED2EC0FF029EC0FF01A0E57
:101140003E6E940EE82EFED73E2EFCD700D04F50B8
:10115000010D2D0EF324D96E000EF420DA6E4F50DF
:10116000010D2A0EF324E16E000EF420E26EDE5033
:10117000E618D8A43DD080A83ED098EC0EF00B0421
:10118000D8B488EC0FF04F50010D2D0EF324D96E1A
:10119000000EF420DA6E050EDF6E4F50010D2D0E9D
:1011A000F324D96E000EF420DA6EDF50300F836E18
:1011B000D2EC0FF029EC0FF01A0E3E6E940EE82ED2
:1011C000FED73E2EFCD700D04F50010D2D0EF3243C
:1011D000D96E000EF420DA6E4F50010D2A0EF32462
:1011E000E16E000EF420E26EDE50E618D8B403D0B3
:1011F000000E056E07D7000E826E2E502B18D8A455
:10120000BFD62F502C18D8A4BBD6062A042A000E0D
:101210002F6E030E2F6401D0B3D6780E826E1A0E95
:101220003E6E940EE82EFED73E2EFCD700D0000E68
:10123000826E2F2AEED782968298829A829C829E14
:10124000010E836ECBEC0FF029EC0FF01A0E3E6E00
:10125000940EE82EFED73E2EFCD700D0020E04647A
:10126000A9D5010E836ECBEC0FF029EC0FF0F4EC56
:101270000AF01200839E82EC0EF0000E3F6E080E04
:101280003F6401D026D03F50010D600EF324F66E6E
:10129000000EF420F76EF86A000EF8223F50010DA0
:1012A000600EF324D96E000EF420DA6E0800F5CF3C
:1012B000DFFF3F50010D600EF324D96E000EF420C5
:1012C000DA6EDF50836ED2EC0FF029EC0FF03F2A7C
:1012D000D6D7000E3F6E090E3F6401D00AD0000E33
:1012E0005F6ED70EE82EFED75F2EFCD700F03F2AA8
:1012F000F2D787C057F0586AB5EC0FF0A2EC0DF0AA
:101300004BC03AF04CC03BF0000E3D6E050E3C6EFB
:101310006AEC0DF03A283E6E000E056E000E046E6B
:101320007AD0A2EC0DF04BC03AF04CC03BF0000E6E
:101330003D6E050E3C6E6AEC0DF03A283E6E020ED4
:101340003E6012D0080E826E000E3F6E050E3F64A6
:1013500001D05ED0000E5F6ED70EE82EFED75F2E56
:10136000FCD700F03F2AF2D7030E3E6012D0100ED9
:10137000826E000E3F6E050E3F6401D049D0000E14
:101380005F6ED70EE82EFED75F2EFCD700F03F2A07
:10139000F2D7040E3E6012D0200E826E000E3F6E19
:1013A000050E3F6401D034D0000E5F6ED70EE82EDC
:1013B000FED75F2EFCD700F03F2AF2D7050E3E6025
:1013C00012D0400E826E000E3F6E050E3F6401D0BB
:1013D0001FD0000E5F6ED70EE82EFED75F2EFCD713
:1013E00000F03F2AF2D7060E3E6012D0800E826EC9
:1013F000000E3F6E050E3F6401D00AD0000E5F6EF6
:10140000D70EE82EFED75F2EFCD700F03F2AF2D78A
:10141000052A000E826E0A0E056483D7F4EC0AF0EA
:10142000010E836ECBEC0FF029EC0FF01200839EBF
:1014300082EC0EF0000E3F6E060E3F6401D026D007
:101440003F50010D500EF324F66E000EF420F76E9F
:10145000F86A000EF8223F50010D500EF324D96EA9
:10146000000EF420DA6E0800F5CFDFFF3F50010DCB
:10147000500EF324D96E000EF420DA6EDF50836E26
:10148000D2EC0FF029EC0FF03F2AD6D7000E3F6EBA
:10149000090E3F6401D00AD0000E5F6ED70EE82E11
:1014A000FED75F2EFCD700F03F2AF2D787C057F057
:1014B000586AB5EC0FF0A2EC0DF04BC03AF04CC0FE
:1014C0003BF0000E3D6E050E3C6E6AEC0DF03A28C6
:1014D0003E6E000E056E000E046E7AD0A2EC0DF08A
:1014E0004BC03AF04CC03BF0000E3D6E050E3C6E1A
:1014F0006AEC0DF03A283E6E020E3E6012D0080EE5
:10150000826E000E3F6E070E3F6401D05ED0000E6B
:101510005F6ED70EE82EFED75F2EFCD700F03F2A75
:10152000F2D7030E3E6012D0100E826E000E3F6E98
:10153000070E3F6401D049D0000E5F6ED70EE82E33
:10154000FED75F2EFCD700F03F2AF2D7040E3E6094
:1015500012D0200E826E000E3F6E070E3F6401D047
:1015600034D0000E5F6ED70EE82EFED75F2EFCD76C
:1015700000F03F2AF2D7050E3E6012D0400E826E78
:10158000000E3F6E070E3F6401D01FD0000E5F6E4D
:10159000D70EE82EFED75F2EFCD700F03F2AF2D7F9
:1015A000060E3E6012D0800E826E000E3F6E070E59
:1015B0003F6401D00AD0000E5F6ED70EE82EFED732
:1015C0005F2EFCD700F03F2AF2D7052A000E826E6C
:1015D000070E056483D7F4EC0AF0010E836ECBECA2
:1015E0000FF029EC0FF01200839E82EC0EF0000E3B
:1015F0005C6E0E0E5C6401D026D05C50010D700E46
:10160000F324F66E000EF420F76EF86A000EF8224E
:101610005C50010D700EF324D96E000EF420DA6ECA
:101620000800F5CFDFFF5C50010D700EF324D96E7A
:10163000000EF420DA6EDF50836ED2EC0FF029EC4E
:101640000FF05C2AD6D7F80E826E52EC0EF0000E28
:101650005C6E090E5C6401D01200000E5B6ED70E4A
:10166000E82EFED75B2EFCD700F0010E836ECBEC8C
:101670000FF029EC0FF006C057F0045019EC0EF0F3
:10168000036E06C057F0045019EC0EF00009D8A400
:1016900017D0010E5C6E020E5C6401D011D05C505C
:1016A000010D010EF324D96E000EF420DA6EDF5026
:1016B000300F836ED2EC0FF029EC0FF05C2AEBD7E1
:1016C0005C2AC7D7839E6CEC0EF0000E0001866F7B
:1016D000080E0001866501D02AD000018651010D57
:1016E000600EF324F66E000EF420F76EF86A000E1A
:1016F000F82200018651010D600EF324D96E000E10
:10170000F420DA6E0800F5CFDFFF00018651010DED
:10171000600EF324D96E000EF420DA6EDF50836E73
:10172000C4EC0FF01CEC0FF00001862BD1D7000E9B
:101730000001866F090E0001866501D00CD0000EF5
:101740000001856FD70EE82EFED7852FFCD700F05D
:101750000001862BEFD7010E836EBDEC0FF01CEC61
:101760000FF012000600E9CF11F0EACF12F0E1CF3E
:1017700013F0E2CF14F0D9CF15F0DACF16F0F3CF93
:1017800017F0F4CF18F0F6CF19F0F7CF1AF0F8CF22
:101790001BF0F5CF1CF081AA06D04EEC0FF00C0424
:1017A000D8B476EC0FF081AC06D042EC0FF00D040B
:1017B000D8B46DEC0FF081AE06D036EC0FF00E040D
:1017C000D8B464EC0FF0F2901CC0F5FF1BC0F8FF1A
:1017D0001AC0F7FF19C0F6FF18C0F4FF17C0F3FFD7
:1017E00016C0DAFF15C0D9FF14C0E2FF13C0E1FF35
:1017F00012C0EAFF11C0E9FF10C0FBFF0FC0FAFFE3
:101800001D921100839E6CEC0EF0000E0001866F9D
:10181000060E0001866501D02AD000018651010D17
:10182000500EF324F66E000EF420F76EF86A000EE8
:10183000F82200018651010D500EF324D96E000EDE
:10184000F420DA6E0800F5CFDFFF00018651010DAC
:10185000500EF324D96E000EF420DA6EDF50836E42
:10186000C4EC0FF01CEC0FF00001862BD1D7000E5A
:101870000001866F090E0001866501D01200000E7E
:101880000001856FD70EE82EFED7852FFCD700F01C
:101890000001862BEFD7839E6CEC0EF0000E00014A
:1018A000866F060E0001866501D02AD000018651A0
:1018B000010D400EF324F66E000EF420F76EF86A68
:1018C000000EF82200018651010D400EF324D96E5E
:1018D000000EF420DA6E0800F5CFDFFF000186511C
:1018E000010D400EF324D96E000EF420DA6EDF50A5
:1018F000836EC4EC0FF01CEC0FF00001862BD1D7E7
:10190000000E0001866F090E0001866501D01200ED
:10191000000E0001856FD70EE82EFED7852FFCD76D
:1019200000F00001862BEFD7839E6CEC0EF0000ECA
:101930000001866F0A0E0001866501D02AD00001E1
:101940008651010D300EF324F66E000EF420F76E72
:10195000F86A000EF82200018651010D300EF324C2
:10196000D96E000EF420DA6E0800F5CFDFFF00011B
:101970008651010D300EF324D96E000EF420DA6E7C
:10198000DF50836EC4EC0FF01CEC0FF00001862BCF
:10199000D1D7000E0001866F090E0001866501D0C7
:1019A0001200000E0001856FD70EE82EFED7852F9E
:1019B000FCD700F00001862BEFD7600ED36EB59EEA
:1019C000000E806E000E896E9280928292849286C2
:1019D0009288929A0F0EC16E000E816E000E8A6E72
:1019E000F00E936E000E826E000E8B6E000E946EE3
:1019F000070EB46E000E836E000E8C6E000E956E98
:101A0000000E846E000E8D6E969096929694D08EF7
:101A1000F28EF286F1806CEC0EF036EC0EF024ECD7
:101A20000DF094EC0CF04BEC0CF002EC0CF062ECD2
:101A30000BF0000E0001876F090E0001876501D0D1
:101A4000F8D70001872BF8D7000E0001856F090E2B
:101A50000001856501D02AD000018551010D200EBD
:101A6000F324F66E000EF420F76EF86A000EF822EA
:101A700000018551010D200EF324D96E000EF420D3
:101A8000DA6E0800F5CFDFFF00018551010D200E51
:101A9000F324D96E000EF420DA6EDF50836EC4ECAE
:101AA0000FF01CEC0FF00001852BD1D7000E0001C8
:101AB000856F090E0001856501D01200000E00013E
:101AC000846FD70EE82EFED7842FFCD700F00001DC
:101AD000852BEFD7000E4E6E3BAE06D03A6C3B1E08
:101AE000D8B03B2A010E4E6E3DAE04D03C6C3D1E7C
:101AF000D8B03D2A3C503D10D8B418D0010E4D6EE0
:101B000004D0D8903C363D364D2A3DAEFAD73C50F5
:101B10003A5C3D503B58D8A004D03C503A5E3D5012
:101B20003B5AD8903D323C324D2EF1D74E50D8B46E
:101B300004D03A6C3B1ED8B03B2A3AC03AF03BC0C6
:101B40003BF012007FC057F080C058F081C059F0C0
:101B500082C05AF06D0E5B6E4E0E5C6EC60E5D6EF0
:101B6000410E5E6ECEEC0DF057C07FF058C080F095
:101B700059C081F05AC082F0390E00017F27300E23
:101B80008023000E8123000E8223FF0E00018115A9
:101B90004B6E7F0E000182154C6E1200000E476ED8
:101BA000000E486E000E496E000E4A6E57A008D017
:101BB0005B5047265C5048225D5049225E504A22C5
:101BC000D8905B365C365D365E36D8905A325932E4
:101BD000583257325750581059105A10D8A4E6D7D7
:101BE00047C057F048C058F049C059F04AC05AF0B1
:101BF0001200C00EF66E1F0EF76E000EF86E00EEAD
:101C00007FF010EE04F00900F5CFEEFFE550E15053
:101C1000FAE10001876B00EE01F00E0EEE6AE806B5
:101C2000FDE14F6A1D901D92000EF86E0001DDEF80
:101C30000CF0586E000E5A6E5750D8B415D0010EE5
:101C4000596E03D0D8905736592A57AEFBD7D89043
:101C50005A365750585CD8A003D05750585E5A8017
:101C6000D8905732592EF3D75A501200000E056EF5
:101C7000080E056401D012008480030E0001836FFA
:101C8000B90EE82EFED7832FFCD700F08490380ED3
:101C90000001836F940EE82EFED7832FFCD700D06F
:101CA000052AE6D7000E056E080E056401D0120065
:101CB0008480030E576EB90EE82EFED7572EFCD740
:101CC00000F08490380E576E940EE82EFED7572EF3
:101CD000FCD700D0052AE8D782940FEC0FF0380E1D
:101CE000836EBDEC0FF00FEC0FF00F0E836EBDECAA
:101CF0000FF01CEC0FF0010E836EBDEC0FF01CEC2E
:101D00000FF0120082947FEC0FF0380E836ECBEC54
:101D10000FF07FEC0FF00F0E836ECBEC0FF029EC81
:101D20000FF0010E836ECBEC0FF029EC0FF01200D8
:101D30000B04D8B4120001EC0FF080A81200828EC0
:101D4000000E5A6ED70EE82EFED75A2EFCD700F0A2
:101D5000829E4F2A000E0B6E12000A04D8B41200A5
:101D600001EC0FF080A61200828C000E5A6ED70E86
:101D7000E82EFED75A2EFCD700F0829C4F2A000E88
:101D80000A6E12000904D8B4120001EC0FF080A40E
:101D90001200828A000E5A6ED70EE82EFED75A2EF7
:101DA000FCD700F0829A4F2A000E096E1200080438
:101DB000D8B4120001EC0FF080A212008288000E4D
:101DC0005A6ED70EE82EFED75A2EFCD700F0829816
:101DD0004F2A000E086E12000704D8B4120001EC5E
:101DE0000FF080A012008286000E5A6ED70EE82EE9
:101DF000FED75A2EFCD700F082964F2A000E076EAF
:101E00001200000E586E04D0000E596E593EFED7D7
:101E1000582A5804576E0C0E5764F6D71200000E5D
:101E20000001846F0001842B84050001836F530E31
:101E300000018365F7D7120095688290828204D0F2
:101E400082845AEC0FF0829483BEFAD7000E956E0E
:101E5000120095688290828204D08284D9EC0FF0BF
:101E6000829483BEFAD7000E956E12000E04D8B489
:101E7000120001EC0FF081AE12003AEC09F0000EF6
:101E80000E6E12000D04D8B4120001EC0FF081ACFC
:101E9000120017EC0AF0000E0D6E12000C04D8B4FC
:101EA000120001EC0FF081AA120081EC06F0000E86
:101EB0000C6E1200000E0001836F0001832B0001E5
:101EC0008305D8A41200F9D781BE120001EC0FF0EF
:101ED00081BE1200000E0E6E120081BC120001ECD9
:101EE0000FF081BC1200000E0D6E120081BA1200BC
:101EF00001EC0FF081BA1200000E0C6E1200000E01
:101F0000586E582A5804576E530E5764FAD7120069
:101F100080B8120001EC0FF080B81200000E0B6EBA
:101F2000120080B6120001EC0FF080B61200000E15
:101F30000A6E120080B4120001EC0FF080B412009F
:101F4000000E096E120080B2120001EC0FF080B298
:101F50001200000E086E120080B0120001EC0FF0AB
:101F600080B01200000E076E120057C07FF058C0FC
:101F700080F00001816B826B1200829082928284D9
:101F80005AEC0FF0829412008280829282845AEC82
:101F90000FF082941200829082928284D9EC0FF02A
:101FA00082941200828082928284D9EC0FF0829413
:101FB0001200000E576E572A5704D8A41200FBD700
:041FC000010000001C
:020000040020DA
:08000000FFFFFFFFFFFFFFFF00
:020000040030CA
:0E000000FF081F1EFF8081FF0FC00FE00F40A2
:00000001FF
